{
  "_format": "hh-sol-artifact-1",
  "contractName": "MyAwesomeNFTs",
  "sourceName": "contracts/MyAwesomeNFTs.sol",
  "abi": [
    {
      "inputs": [],
      "stateMutability": "nonpayable",
      "type": "constructor"
    },
    {
      "anonymous": false,
      "inputs": [
        {
          "indexed": true,
          "internalType": "address",
          "name": "owner",
          "type": "address"
        },
        {
          "indexed": true,
          "internalType": "address",
          "name": "approved",
          "type": "address"
        },
        {
          "indexed": true,
          "internalType": "uint256",
          "name": "tokenId",
          "type": "uint256"
        }
      ],
      "name": "Approval",
      "type": "event"
    },
    {
      "anonymous": false,
      "inputs": [
        {
          "indexed": true,
          "internalType": "address",
          "name": "owner",
          "type": "address"
        },
        {
          "indexed": true,
          "internalType": "address",
          "name": "operator",
          "type": "address"
        },
        {
          "indexed": false,
          "internalType": "bool",
          "name": "approved",
          "type": "bool"
        }
      ],
      "name": "ApprovalForAll",
      "type": "event"
    },
    {
      "anonymous": false,
      "inputs": [
        {
          "indexed": false,
          "internalType": "address",
          "name": "sender",
          "type": "address"
        },
        {
          "indexed": false,
          "internalType": "uint256",
          "name": "tokenId",
          "type": "uint256"
        }
      ],
      "name": "NewAwesomeNFTMinted",
      "type": "event"
    },
    {
      "anonymous": false,
      "inputs": [
        {
          "indexed": true,
          "internalType": "address",
          "name": "from",
          "type": "address"
        },
        {
          "indexed": true,
          "internalType": "address",
          "name": "to",
          "type": "address"
        },
        {
          "indexed": true,
          "internalType": "uint256",
          "name": "tokenId",
          "type": "uint256"
        }
      ],
      "name": "Transfer",
      "type": "event"
    },
    {
      "inputs": [
        {
          "internalType": "address",
          "name": "to",
          "type": "address"
        },
        {
          "internalType": "uint256",
          "name": "tokenId",
          "type": "uint256"
        }
      ],
      "name": "approve",
      "outputs": [],
      "stateMutability": "nonpayable",
      "type": "function"
    },
    {
      "inputs": [
        {
          "internalType": "address",
          "name": "owner",
          "type": "address"
        }
      ],
      "name": "balanceOf",
      "outputs": [
        {
          "internalType": "uint256",
          "name": "",
          "type": "uint256"
        }
      ],
      "stateMutability": "view",
      "type": "function"
    },
    {
      "inputs": [
        {
          "internalType": "uint256",
          "name": "tokenId",
          "type": "uint256"
        }
      ],
      "name": "getApproved",
      "outputs": [
        {
          "internalType": "address",
          "name": "",
          "type": "address"
        }
      ],
      "stateMutability": "view",
      "type": "function"
    },
    {
      "inputs": [
        {
          "internalType": "address",
          "name": "owner",
          "type": "address"
        },
        {
          "internalType": "address",
          "name": "operator",
          "type": "address"
        }
      ],
      "name": "isApprovedForAll",
      "outputs": [
        {
          "internalType": "bool",
          "name": "",
          "type": "bool"
        }
      ],
      "stateMutability": "view",
      "type": "function"
    },
    {
      "inputs": [],
      "name": "makeAnAwesomeNFT",
      "outputs": [],
      "stateMutability": "nonpayable",
      "type": "function"
    },
    {
      "inputs": [],
      "name": "mintedSoFar",
      "outputs": [
        {
          "internalType": "uint256",
          "name": "",
          "type": "uint256"
        }
      ],
      "stateMutability": "view",
      "type": "function"
    },
    {
      "inputs": [],
      "name": "name",
      "outputs": [
        {
          "internalType": "string",
          "name": "",
          "type": "string"
        }
      ],
      "stateMutability": "view",
      "type": "function"
    },
    {
      "inputs": [
        {
          "internalType": "uint256",
          "name": "tokenId",
          "type": "uint256"
        }
      ],
      "name": "ownerOf",
      "outputs": [
        {
          "internalType": "address",
          "name": "",
          "type": "address"
        }
      ],
      "stateMutability": "view",
      "type": "function"
    },
    {
      "inputs": [
        {
          "internalType": "uint256",
          "name": "tokenId",
          "type": "uint256"
        }
      ],
      "name": "pickRandomColor",
      "outputs": [
        {
          "internalType": "string",
          "name": "",
          "type": "string"
        }
      ],
      "stateMutability": "view",
      "type": "function"
    },
    {
      "inputs": [
        {
          "internalType": "uint256",
          "name": "tokenId",
          "type": "uint256"
        }
      ],
      "name": "pickRandomFirstWord",
      "outputs": [
        {
          "internalType": "string",
          "name": "",
          "type": "string"
        }
      ],
      "stateMutability": "view",
      "type": "function"
    },
    {
      "inputs": [
        {
          "internalType": "uint256",
          "name": "tokenId",
          "type": "uint256"
        }
      ],
      "name": "pickRandomSecondWord",
      "outputs": [
        {
          "internalType": "string",
          "name": "",
          "type": "string"
        }
      ],
      "stateMutability": "view",
      "type": "function"
    },
    {
      "inputs": [
        {
          "internalType": "uint256",
          "name": "tokenId",
          "type": "uint256"
        }
      ],
      "name": "pickRandomThirdWord",
      "outputs": [
        {
          "internalType": "string",
          "name": "",
          "type": "string"
        }
      ],
      "stateMutability": "view",
      "type": "function"
    },
    {
      "inputs": [
        {
          "internalType": "address",
          "name": "from",
          "type": "address"
        },
        {
          "internalType": "address",
          "name": "to",
          "type": "address"
        },
        {
          "internalType": "uint256",
          "name": "tokenId",
          "type": "uint256"
        }
      ],
      "name": "safeTransferFrom",
      "outputs": [],
      "stateMutability": "nonpayable",
      "type": "function"
    },
    {
      "inputs": [
        {
          "internalType": "address",
          "name": "from",
          "type": "address"
        },
        {
          "internalType": "address",
          "name": "to",
          "type": "address"
        },
        {
          "internalType": "uint256",
          "name": "tokenId",
          "type": "uint256"
        },
        {
          "internalType": "bytes",
          "name": "_data",
          "type": "bytes"
        }
      ],
      "name": "safeTransferFrom",
      "outputs": [],
      "stateMutability": "nonpayable",
      "type": "function"
    },
    {
      "inputs": [
        {
          "internalType": "address",
          "name": "operator",
          "type": "address"
        },
        {
          "internalType": "bool",
          "name": "approved",
          "type": "bool"
        }
      ],
      "name": "setApprovalForAll",
      "outputs": [],
      "stateMutability": "nonpayable",
      "type": "function"
    },
    {
      "inputs": [
        {
          "internalType": "bytes4",
          "name": "interfaceId",
          "type": "bytes4"
        }
      ],
      "name": "supportsInterface",
      "outputs": [
        {
          "internalType": "bool",
          "name": "",
          "type": "bool"
        }
      ],
      "stateMutability": "view",
      "type": "function"
    },
    {
      "inputs": [],
      "name": "symbol",
      "outputs": [
        {
          "internalType": "string",
          "name": "",
          "type": "string"
        }
      ],
      "stateMutability": "view",
      "type": "function"
    },
    {
      "inputs": [
        {
          "internalType": "uint256",
          "name": "tokenId",
          "type": "uint256"
        }
      ],
      "name": "tokenURI",
      "outputs": [
        {
          "internalType": "string",
          "name": "",
          "type": "string"
        }
      ],
      "stateMutability": "view",
      "type": "function"
    },
    {
      "inputs": [
        {
          "internalType": "address",
          "name": "from",
          "type": "address"
        },
        {
          "internalType": "address",
          "name": "to",
          "type": "address"
        },
        {
          "internalType": "uint256",
          "name": "tokenId",
          "type": "uint256"
        }
      ],
      "name": "transferFrom",
      "outputs": [],
      "stateMutability": "nonpayable",
      "type": "function"
    }
  ],
  "bytecode": "0x608060405260405180610100016040528060d38152602001620049a460d39139600890805190602001906200003692919062000b38565b5060405180608001604052806056815260200162004abe60569139600990805190602001906200006892919062000b38565b506040518061014001604052806040518060400160405280600681526020017f536869747479000000000000000000000000000000000000000000000000000081525081526020016040518060400160405280600581526020017f546173747900000000000000000000000000000000000000000000000000000081525081526020016040518060400160405280600481526020017f426c75650000000000000000000000000000000000000000000000000000000081525081526020016040518060400160405280600481526020017f5761726d0000000000000000000000000000000000000000000000000000000081525081526020016040518060400160405280600681526020017f53706f6f6b79000000000000000000000000000000000000000000000000000081525081526020016040518060400160405280600b81526020017f4d61676e69666963656e7400000000000000000000000000000000000000000081525081526020016040518060400160405280600481526020017f4c617a790000000000000000000000000000000000000000000000000000000081525081526020016040518060400160405280600681526020017f4765726d616e000000000000000000000000000000000000000000000000000081525081526020016040518060400160405280600481526020017f486967680000000000000000000000000000000000000000000000000000000081525081526020016040518060400160405280600581526020017f4472756e6b000000000000000000000000000000000000000000000000000000815250815250600a90600a620002d392919062000bc9565b506040518061014001604052806040518060400160405280600681526020017f436173746c65000000000000000000000000000000000000000000000000000081525081526020016040518060400160405280600a81526020017f4261736b657462616c6c0000000000000000000000000000000000000000000081525081526020016040518060400160405280600681526020017f436f64696e67000000000000000000000000000000000000000000000000000081525081526020016040518060400160405280600a81526020017f47656e657261746976650000000000000000000000000000000000000000000081525081526020016040518060400160405280600381526020017f486174000000000000000000000000000000000000000000000000000000000081525081526020016040518060400160405280600681526020017f416374696f6e000000000000000000000000000000000000000000000000000081525081526020016040518060400160405280600581526020017f447265616d00000000000000000000000000000000000000000000000000000081525081526020016040518060400160405280600481526020017f466c61740000000000000000000000000000000000000000000000000000000081525081526020016040518060400160405280600781526020017f4d696e6976616e0000000000000000000000000000000000000000000000000081525081526020016040518060400160405280600581526020017f547572626f000000000000000000000000000000000000000000000000000000815250815250600b90600a6200053e92919062000bc9565b506040518061014001604052806040518060400160405280600681526020017f4b616b756b6b000000000000000000000000000000000000000000000000000081525081526020016040518060400160405280600481526020017f506f6f700000000000000000000000000000000000000000000000000000000081525081526020016040518060400160405280600781526020017f57617272696f720000000000000000000000000000000000000000000000000081525081526020016040518060400160405280600381526020017f4e4654000000000000000000000000000000000000000000000000000000000081525081526020016040518060400160405280600581526020017f4d6167696300000000000000000000000000000000000000000000000000000081525081526020016040518060400160405280600481526020017f576f6f660000000000000000000000000000000000000000000000000000000081525081526020016040518060400160405280600481526020017f506f70690000000000000000000000000000000000000000000000000000000081525081526020016040518060400160405280600581526020017f52697a736900000000000000000000000000000000000000000000000000000081525081526020016040518060400160405280600581526020017f50697a7a6100000000000000000000000000000000000000000000000000000081525081526020016040518060400160405280600581526020017f4d75736963000000000000000000000000000000000000000000000000000000815250815250600c90600a620007a992919062000bc9565b506040518060c001604052806040518060400160405280600581526020017f626c61636b00000000000000000000000000000000000000000000000000000081525081526020016040518060400160405280600481526020017f626c75650000000000000000000000000000000000000000000000000000000081525081526020016040518060400160405280600381526020017f726564000000000000000000000000000000000000000000000000000000000081525081526020016040518060400160405280600581526020017f677265656e00000000000000000000000000000000000000000000000000000081525081526020016040518060400160405280600681526020017f79656c6c6f77000000000000000000000000000000000000000000000000000081525081526020016040518060400160405280600781526020017f2330384332413800000000000000000000000000000000000000000000000000815250815250600d9060066200092792919062000c30565b506032600e553480156200093a57600080fd5b506040518060400160405280600f81526020017f3320417765736f6d6520576f72647300000000000000000000000000000000008152506040518060400160405280600581526020017f33415745570000000000000000000000000000000000000000000000000000008152508160009080519060200190620009bf92919062000b38565b508060019080519060200190620009d892919062000b38565b50505062000a0a60405180606001604052806025815260200162004a996025913962000a5660201b620012b91760201c565b62000a21600762000af960201b620013521760201c565b62000a5060405180606001604052806022815260200162004a776022913962000a5660201b620012b91760201c565b62000e51565b62000af68160405160240162000a6d919062000d65565b6040516020818303038152906040527f41304fac000000000000000000000000000000000000000000000000000000007bffffffffffffffffffffffffffffffffffffffffffffffffffffffff19166020820180517bffffffffffffffffffffffffffffffffffffffffffffffffffffffff838183161783525050505062000b0f60201b60201c565b50565b6001816000016000828254019250508190555050565b60008151905060006a636f6e736f6c652e6c6f679050602083016000808483855afa5050505050565b82805462000b469062000ddb565b90600052602060002090601f01602090048101928262000b6a576000855562000bb6565b82601f1062000b8557805160ff191683800117855562000bb6565b8280016001018555821562000bb6579182015b8281111562000bb557825182559160200191906001019062000b98565b5b50905062000bc5919062000c97565b5090565b82805482825590600052602060002090810192821562000c1d579160200282015b8281111562000c1c57825182908051906020019062000c0b92919062000b38565b509160200191906001019062000bea565b5b50905062000c2c919062000cb6565b5090565b82805482825590600052602060002090810192821562000c84579160200282015b8281111562000c8357825182908051906020019062000c7292919062000b38565b509160200191906001019062000c51565b5b50905062000c93919062000cb6565b5090565b5b8082111562000cb257600081600090555060010162000c98565b5090565b5b8082111562000cda576000818162000cd0919062000cde565b5060010162000cb7565b5090565b50805462000cec9062000ddb565b6000825580601f1062000d00575062000d21565b601f01602090049060005260206000209081019062000d20919062000c97565b5b50565b600062000d318262000d89565b62000d3d818562000d94565b935062000d4f81856020860162000da5565b62000d5a8162000e40565b840191505092915050565b6000602082019050818103600083015262000d81818462000d24565b905092915050565b600081519050919050565b600082825260208201905092915050565b60005b8381101562000dc557808201518184015260208101905062000da8565b8381111562000dd5576000848401525b50505050565b6000600282049050600182168062000df457607f821691505b6020821081141562000e0b5762000e0a62000e11565b5b50919050565b7f4e487b7100000000000000000000000000000000000000000000000000000000600052602260045260246000fd5b6000601f19601f8301169050919050565b613b438062000e616000396000f3fe608060405234801561001057600080fd5b50600436106101215760003560e01c806370a08231116100ad578063b187301f11610071578063b187301f1461031a578063b88d4fde1461034a578063c575757a14610366578063c87b56dd14610396578063e985e9c5146103c657610121565b806370a08231146102885780638521b50c146102b857806393bd3da5146102c257806395d89b41146102e0578063a22cb465146102fe57610121565b806323b872dd116100f457806323b872dd146101c05780632de38d68146101dc57806342842e0e1461020c578063514dc8c6146102285780636352211e1461025857610121565b806301ffc9a71461012657806306fdde0314610156578063081812fc14610174578063095ea7b3146101a4575b600080fd5b610140600480360381019061013b91906126b9565b6103f6565b60405161014d9190613397565b60405180910390f35b61015e6104d8565b60405161016b91906133b2565b60405180910390f35b61018e6004803603810190610189919061270b565b61056a565b60405161019b9190613307565b60405180910390f35b6101be60048036038101906101b9919061267d565b6105ef565b005b6101da60048036038101906101d59190612577565b610707565b005b6101f660048036038101906101f1919061270b565b610767565b60405161020391906133b2565b60405180910390f35b61022660048036038101906102219190612577565b610885565b005b610242600480360381019061023d919061270b565b6108a5565b60405161024f91906133b2565b60405180910390f35b610272600480360381019061026d919061270b565b6109c3565b60405161027f9190613307565b60405180910390f35b6102a2600480360381019061029d9190612512565b610a75565b6040516102af9190613632565b60405180910390f35b6102c0610b2d565b005b6102ca610d6b565b6040516102d79190613632565b60405180910390f35b6102e8610d8d565b6040516102f591906133b2565b60405180910390f35b61031860048036038101906103139190612641565b610e1f565b005b610334600480360381019061032f919061270b565b610e35565b60405161034191906133b2565b60405180910390f35b610364600480360381019061035f91906125c6565b610f53565b005b610380600480360381019061037b919061270b565b610fb5565b60405161038d91906133b2565b60405180910390f35b6103b060048036038101906103ab919061270b565b6110d3565b6040516103bd91906133b2565b60405180910390f35b6103e060048036038101906103db919061253b565b611225565b6040516103ed9190613397565b60405180910390f35b60007f80ac58cd000000000000000000000000000000000000000000000000000000007bffffffffffffffffffffffffffffffffffffffffffffffffffffffff1916827bffffffffffffffffffffffffffffffffffffffffffffffffffffffff191614806104c157507f5b5e139f000000000000000000000000000000000000000000000000000000007bffffffffffffffffffffffffffffffffffffffffffffffffffffffff1916827bffffffffffffffffffffffffffffffffffffffffffffffffffffffff1916145b806104d157506104d082611368565b5b9050919050565b6060600080546104e7906138d1565b80601f0160208091040260200160405190810160405280929190818152602001828054610513906138d1565b80156105605780601f1061053557610100808354040283529160200191610560565b820191906000526020600020905b81548152906001019060200180831161054357829003601f168201915b5050505050905090565b6000610575826113d2565b6105b4576040517f08c379a00000000000000000000000000000000000000000000000000000000081526004016105ab90613572565b60405180910390fd5b6004600083815260200190815260200160002060009054906101000a900473ffffffffffffffffffffffffffffffffffffffff169050919050565b60006105fa826109c3565b90508073ffffffffffffffffffffffffffffffffffffffff168373ffffffffffffffffffffffffffffffffffffffff16141561066b576040517f08c379a0000000000000000000000000000000000000000000000000000000008152600401610662906135f2565b60405180910390fd5b8073ffffffffffffffffffffffffffffffffffffffff1661068a61143e565b73ffffffffffffffffffffffffffffffffffffffff1614806106b957506106b8816106b361143e565b611225565b5b6106f8576040517f08c379a00000000000000000000000000000000000000000000000000000000081526004016106ef906134b2565b60405180910390fd5b6107028383611446565b505050565b61071861071261143e565b826114ff565b610757576040517f08c379a000000000000000000000000000000000000000000000000000000000815260040161074e90613612565b60405180910390fd5b6107628383836115dd565b505050565b6060600061079b61077784611839565b60405160200161078791906132a1565b6040516020818303038152906040526119e6565b9050600a80549050816107ae919061394c565b9050600a81815481106107ea577f4e487b7100000000000000000000000000000000000000000000000000000000600052603260045260246000fd5b9060005260206000200180546107ff906138d1565b80601f016020809104026020016040519081016040528092919081815260200182805461082b906138d1565b80156108785780601f1061084d57610100808354040283529160200191610878565b820191906000526020600020905b81548152906001019060200180831161085b57829003601f168201915b5050505050915050919050565b6108a083838360405180602001604052806000815250610f53565b505050565b606060006108d96108b584611839565b6040516020016108c591906132e5565b6040516020818303038152906040526119e6565b9050600d80549050816108ec919061394c565b9050600d8181548110610928577f4e487b7100000000000000000000000000000000000000000000000000000000600052603260045260246000fd5b90600052602060002001805461093d906138d1565b80601f0160208091040260200160405190810160405280929190818152602001828054610969906138d1565b80156109b65780601f1061098b576101008083540402835291602001916109b6565b820191906000526020600020905b81548152906001019060200180831161099957829003601f168201915b5050505050915050919050565b6000806002600084815260200190815260200160002060009054906101000a900473ffffffffffffffffffffffffffffffffffffffff169050600073ffffffffffffffffffffffffffffffffffffffff168173ffffffffffffffffffffffffffffffffffffffff161415610a6c576040517f08c379a0000000000000000000000000000000000000000000000000000000008152600401610a63906134f2565b60405180910390fd5b80915050919050565b60008073ffffffffffffffffffffffffffffffffffffffff168273ffffffffffffffffffffffffffffffffffffffff161415610ae6576040517f08c379a0000000000000000000000000000000000000000000000000000000008152600401610add906134d2565b60405180910390fd5b600360008373ffffffffffffffffffffffffffffffffffffffff1673ffffffffffffffffffffffffffffffffffffffff168152602001908152602001600020549050919050565b6000610b396007611a19565b9050600e548110610b7f576040517f08c379a0000000000000000000000000000000000000000000000000000000008152600401610b76906135d2565b60405180910390fd5b6000610b8a82610767565b90506000610b9783610e35565b90506000610ba484610fb5565b90506000838383604051602001610bbd9392919061319e565b60405160208183030381529060405290506000610bd9866108a5565b90506000600882600985604051602001610bf694939291906131cf565b60405160208183030381529060405290506000610c3b84610c1684611a27565b604051602001610c2792919061325c565b604051602081830303815290604052611a27565b9050600081604051602001610c5091906132c3565b6040516020818303038152906040529050610c9f6040518060400160405280601181526020017f0a2d2d2d2d2d2d2d2d2d2d2d2d2d2d2d2d0000000000000000000000000000008152506112b9565b610ca8816112b9565b610ce66040518060400160405280601181526020017f2d2d2d2d2d2d2d2d2d2d2d2d2d2d2d2d0a0000000000000000000000000000008152506112b9565b610cf0338a611be5565b610cfa8982611c03565b610d1d604051806060016040528060278152602001613ae7602791398a33611c77565b610d276007611352565b7fe966594f9e2296b4d9bff8acc498ab7786e76256478496f73e096f6b119630d3338a604051610d5892919061336e565b60405180910390a1505050505050505050565b6000806001610d7a6007611a19565b610d8491906137e7565b90508091505090565b606060018054610d9c906138d1565b80601f0160208091040260200160405190810160405280929190818152602001828054610dc8906138d1565b8015610e155780601f10610dea57610100808354040283529160200191610e15565b820191906000526020600020905b815481529060010190602001808311610df857829003601f168201915b5050505050905090565b610e31610e2a61143e565b8383611d16565b5050565b60606000610e69610e4584611839565b604051602001610e55919061323a565b6040516020818303038152906040526119e6565b9050600b8054905081610e7c919061394c565b9050600b8181548110610eb8577f4e487b7100000000000000000000000000000000000000000000000000000000600052603260045260246000fd5b906000526020600020018054610ecd906138d1565b80601f0160208091040260200160405190810160405280929190818152602001828054610ef9906138d1565b8015610f465780601f10610f1b57610100808354040283529160200191610f46565b820191906000526020600020905b815481529060010190602001808311610f2957829003601f168201915b5050505050915050919050565b610f64610f5e61143e565b836114ff565b610fa3576040517f08c379a0000000000000000000000000000000000000000000000000000000008152600401610f9a90613612565b60405180910390fd5b610faf84848484611e83565b50505050565b60606000610fe9610fc584611839565b604051602001610fd59190613218565b6040516020818303038152906040526119e6565b9050600c8054905081610ffc919061394c565b9050600c8181548110611038577f4e487b7100000000000000000000000000000000000000000000000000000000600052603260045260246000fd5b90600052602060002001805461104d906138d1565b80601f0160208091040260200160405190810160405280929190818152602001828054611079906138d1565b80156110c65780601f1061109b576101008083540402835291602001916110c6565b820191906000526020600020905b8154815290600101906020018083116110a957829003601f168201915b5050505050915050919050565b60606110de826113d2565b61111d576040517f08c379a000000000000000000000000000000000000000000000000000000000815260040161111490613552565b60405180910390fd5b600060066000848152602001908152602001600020805461113d906138d1565b80601f0160208091040260200160405190810160405280929190818152602001828054611169906138d1565b80156111b65780601f1061118b576101008083540402835291602001916111b6565b820191906000526020600020905b81548152906001019060200180831161119957829003601f168201915b5050505050905060006111c7611edf565b90506000815114156111dd578192505050611220565b6000825111156112125780826040516020016111fa92919061317a565b60405160208183030381529060405292505050611220565b61121b84611ef6565b925050505b919050565b6000600560008473ffffffffffffffffffffffffffffffffffffffff1673ffffffffffffffffffffffffffffffffffffffff16815260200190815260200160002060008373ffffffffffffffffffffffffffffffffffffffff1673ffffffffffffffffffffffffffffffffffffffff16815260200190815260200160002060009054906101000a900460ff16905092915050565b61134f816040516024016112cd91906133b2565b6040516020818303038152906040527f41304fac000000000000000000000000000000000000000000000000000000007bffffffffffffffffffffffffffffffffffffffffffffffffffffffff19166020820180517bffffffffffffffffffffffffffffffffffffffffffffffffffffffff8381831617835250505050611f9d565b50565b6001816000016000828254019250508190555050565b60007f01ffc9a7000000000000000000000000000000000000000000000000000000007bffffffffffffffffffffffffffffffffffffffffffffffffffffffff1916827bffffffffffffffffffffffffffffffffffffffffffffffffffffffff1916149050919050565b60008073ffffffffffffffffffffffffffffffffffffffff166002600084815260200190815260200160002060009054906101000a900473ffffffffffffffffffffffffffffffffffffffff1673ffffffffffffffffffffffffffffffffffffffff1614159050919050565b600033905090565b816004600083815260200190815260200160002060006101000a81548173ffffffffffffffffffffffffffffffffffffffff021916908373ffffffffffffffffffffffffffffffffffffffff160217905550808273ffffffffffffffffffffffffffffffffffffffff166114b9836109c3565b73ffffffffffffffffffffffffffffffffffffffff167f8c5be1e5ebec7d5bd14f71427d1e84f3dd0314c0f7b2291e5b200ac8c7c3b92560405160405180910390a45050565b600061150a826113d2565b611549576040517f08c379a000000000000000000000000000000000000000000000000000000000815260040161154090613492565b60405180910390fd5b6000611554836109c3565b90508073ffffffffffffffffffffffffffffffffffffffff168473ffffffffffffffffffffffffffffffffffffffff1614806115c357508373ffffffffffffffffffffffffffffffffffffffff166115ab8461056a565b73ffffffffffffffffffffffffffffffffffffffff16145b806115d457506115d38185611225565b5b91505092915050565b8273ffffffffffffffffffffffffffffffffffffffff166115fd826109c3565b73ffffffffffffffffffffffffffffffffffffffff1614611653576040517f08c379a000000000000000000000000000000000000000000000000000000000815260040161164a90613592565b60405180910390fd5b600073ffffffffffffffffffffffffffffffffffffffff168273ffffffffffffffffffffffffffffffffffffffff1614156116c3576040517f08c379a00000000000000000000000000000000000000000000000000000000081526004016116ba90613452565b60405180910390fd5b6116ce838383611fc6565b6116d9600082611446565b6001600360008573ffffffffffffffffffffffffffffffffffffffff1673ffffffffffffffffffffffffffffffffffffffff168152602001908152602001600020600082825461172991906137e7565b925050819055506001600360008473ffffffffffffffffffffffffffffffffffffffff1673ffffffffffffffffffffffffffffffffffffffff16815260200190815260200160002060008282546117809190613706565b92505081905550816002600083815260200190815260200160002060006101000a81548173ffffffffffffffffffffffffffffffffffffffff021916908373ffffffffffffffffffffffffffffffffffffffff160217905550808273ffffffffffffffffffffffffffffffffffffffff168473ffffffffffffffffffffffffffffffffffffffff167fddf252ad1be2c89b69c2b068fc378daa952ba7f163c4a11628f55a4df523b3ef60405160405180910390a4505050565b60606000821415611881576040518060400160405280600181526020017f300000000000000000000000000000000000000000000000000000000000000081525090506119e1565b600082905060005b600082146118b357808061189c90613903565b915050600a826118ac919061375c565b9150611889565b60008167ffffffffffffffff8111156118f5577f4e487b7100000000000000000000000000000000000000000000000000000000600052604160045260246000fd5b6040519080825280601f01601f1916602001820160405280156119275781602001600182028036833780820191505090505b5090505b600085146119da5760018261194091906137e7565b9150600a8561194f919061394c565b603061195b9190613706565b60f81b818381518110611997577f4e487b7100000000000000000000000000000000000000000000000000000000600052603260045260246000fd5b60200101907effffffffffffffffffffffffffffffffffffffffffffffffffffffffffffff1916908160001a905350600a856119d3919061375c565b945061192b565b8093505050505b919050565b6000816040516020016119f99190613163565b6040516020818303038152906040528051906020012060001c9050919050565b600081600001549050919050565b60606000825190506000811415611a505760405180602001604052806000815250915050611be0565b60006003600283611a619190613706565b611a6b919061375c565b6004611a77919061378d565b90506000602082611a889190613706565b67ffffffffffffffff811115611ac7577f4e487b7100000000000000000000000000000000000000000000000000000000600052604160045260246000fd5b6040519080825280601f01601f191660200182016040528015611af95781602001600182028036833780820191505090505b5090506000604051806060016040528060408152602001613aa7604091399050600181016020830160005b86811015611b9d5760038101905062ffffff818a015116603f8160121c168401518060081b905060ff603f83600c1c1686015116810190508060081b905060ff603f8360061c1686015116810190508060081b905060ff603f831686015116810190508060e01b90508084526004840193505050611b24565b506003860660018114611bb75760028114611bc757611bd2565b613d3d60f01b6002830352611bd2565b603d60f81b60018303525b508484525050819450505050505b919050565b611bff828260405180602001604052806000815250611fcb565b5050565b611c0c826113d2565b611c4b576040517f08c379a0000000000000000000000000000000000000000000000000000000008152600401611c4290613512565b60405180910390fd5b80600660008481526020019081526020016000209080519060200190611c7292919061239e565b505050565b611d11838383604051602401611c8f939291906133d4565b6040516020818303038152906040527fe3849f79000000000000000000000000000000000000000000000000000000007bffffffffffffffffffffffffffffffffffffffffffffffffffffffff19166020820180517bffffffffffffffffffffffffffffffffffffffffffffffffffffffff8381831617835250505050611f9d565b505050565b8173ffffffffffffffffffffffffffffffffffffffff168373ffffffffffffffffffffffffffffffffffffffff161415611d85576040517f08c379a0000000000000000000000000000000000000000000000000000000008152600401611d7c90613472565b60405180910390fd5b80600560008573ffffffffffffffffffffffffffffffffffffffff1673ffffffffffffffffffffffffffffffffffffffff16815260200190815260200160002060008473ffffffffffffffffffffffffffffffffffffffff1673ffffffffffffffffffffffffffffffffffffffff16815260200190815260200160002060006101000a81548160ff0219169083151502179055508173ffffffffffffffffffffffffffffffffffffffff168373ffffffffffffffffffffffffffffffffffffffff167f17307eab39ab6107e8899845ad3d59bd9653f200f220920489ca2b5937696c3183604051611e769190613397565b60405180910390a3505050565b611e8e8484846115dd565b611e9a84848484612026565b611ed9576040517f08c379a0000000000000000000000000000000000000000000000000000000008152600401611ed090613412565b60405180910390fd5b50505050565b606060405180602001604052806000815250905090565b6060611f01826113d2565b611f40576040517f08c379a0000000000000000000000000000000000000000000000000000000008152600401611f37906135b2565b60405180910390fd5b6000611f4a611edf565b90506000815111611f6a5760405180602001604052806000815250611f95565b80611f7484611839565b604051602001611f8592919061317a565b6040516020818303038152906040525b915050919050565b60008151905060006a636f6e736f6c652e6c6f679050602083016000808483855afa5050505050565b505050565b611fd583836121bd565b611fe26000848484612026565b612021576040517f08c379a000000000000000000000000000000000000000000000000000000000815260040161201890613412565b60405180910390fd5b505050565b60006120478473ffffffffffffffffffffffffffffffffffffffff1661238b565b156121b0578373ffffffffffffffffffffffffffffffffffffffff1663150b7a0261207061143e565b8786866040518563ffffffff1660e01b81526004016120929493929190613322565b602060405180830381600087803b1580156120ac57600080fd5b505af19250505080156120dd57506040513d601f19601f820116820180604052508101906120da91906126e2565b60015b612160573d806000811461210d576040519150601f19603f3d011682016040523d82523d6000602084013e612112565b606091505b50600081511415612158576040517f08c379a000000000000000000000000000000000000000000000000000000000815260040161214f90613412565b60405180910390fd5b805181602001fd5b63150b7a0260e01b7bffffffffffffffffffffffffffffffffffffffffffffffffffffffff1916817bffffffffffffffffffffffffffffffffffffffffffffffffffffffff1916149150506121b5565b600190505b949350505050565b600073ffffffffffffffffffffffffffffffffffffffff168273ffffffffffffffffffffffffffffffffffffffff16141561222d576040517f08c379a000000000000000000000000000000000000000000000000000000000815260040161222490613532565b60405180910390fd5b612236816113d2565b15612276576040517f08c379a000000000000000000000000000000000000000000000000000000000815260040161226d90613432565b60405180910390fd5b61228260008383611fc6565b6001600360008473ffffffffffffffffffffffffffffffffffffffff1673ffffffffffffffffffffffffffffffffffffffff16815260200190815260200160002060008282546122d29190613706565b92505081905550816002600083815260200190815260200160002060006101000a81548173ffffffffffffffffffffffffffffffffffffffff021916908373ffffffffffffffffffffffffffffffffffffffff160217905550808273ffffffffffffffffffffffffffffffffffffffff16600073ffffffffffffffffffffffffffffffffffffffff167fddf252ad1be2c89b69c2b068fc378daa952ba7f163c4a11628f55a4df523b3ef60405160405180910390a45050565b600080823b905060008111915050919050565b8280546123aa906138d1565b90600052602060002090601f0160209004810192826123cc5760008555612413565b82601f106123e557805160ff1916838001178555612413565b82800160010185558215612413579182015b828111156124125782518255916020019190600101906123f7565b5b5090506124209190612424565b5090565b5b8082111561243d576000816000905550600101612425565b5090565b600061245461244f8461367e565b61364d565b90508281526020810184848401111561246c57600080fd5b61247784828561388f565b509392505050565b60008135905061248e81613a4a565b92915050565b6000813590506124a381613a61565b92915050565b6000813590506124b881613a78565b92915050565b6000815190506124cd81613a78565b92915050565b600082601f8301126124e457600080fd5b81356124f4848260208601612441565b91505092915050565b60008135905061250c81613a8f565b92915050565b60006020828403121561252457600080fd5b60006125328482850161247f565b91505092915050565b6000806040838503121561254e57600080fd5b600061255c8582860161247f565b925050602061256d8582860161247f565b9150509250929050565b60008060006060848603121561258c57600080fd5b600061259a8682870161247f565b93505060206125ab8682870161247f565b92505060406125bc868287016124fd565b9150509250925092565b600080600080608085870312156125dc57600080fd5b60006125ea8782880161247f565b94505060206125fb8782880161247f565b935050604061260c878288016124fd565b925050606085013567ffffffffffffffff81111561262957600080fd5b612635878288016124d3565b91505092959194509250565b6000806040838503121561265457600080fd5b60006126628582860161247f565b925050602061267385828601612494565b9150509250929050565b6000806040838503121561269057600080fd5b600061269e8582860161247f565b92505060206126af858286016124fd565b9150509250929050565b6000602082840312156126cb57600080fd5b60006126d9848285016124a9565b91505092915050565b6000602082840312156126f457600080fd5b6000612702848285016124be565b91505092915050565b60006020828403121561271d57600080fd5b600061272b848285016124fd565b91505092915050565b61273d8161381b565b82525050565b61274c8161382d565b82525050565b600061275d826136c3565b61276781856136d9565b935061277781856020860161389e565b61278081613a39565b840191505092915050565b6000612796826136ce565b6127a081856136ea565b93506127b081856020860161389e565b6127b981613a39565b840191505092915050565b60006127cf826136ce565b6127d981856136fb565b93506127e981856020860161389e565b80840191505092915050565b60008154612802816138d1565b61280c81866136fb565b9450600182166000811461282757600181146128385761286b565b60ff1983168652818601935061286b565b612841856136ae565b60005b8381101561286357815481890152600182019150602081019050612844565b838801955050505b50505092915050565b60006128816032836136ea565b91507f4552433732313a207472616e7366657220746f206e6f6e20455243373231526560008301527f63656976657220696d706c656d656e74657200000000000000000000000000006020830152604082019050919050565b60006128e7601c836136ea565b91507f4552433732313a20746f6b656e20616c7265616479206d696e746564000000006000830152602082019050919050565b6000612927600a836136fb565b91507f54484952445f574f5244000000000000000000000000000000000000000000006000830152600a82019050919050565b60006129676024836136ea565b91507f4552433732313a207472616e7366657220746f20746865207a65726f2061646460008301527f72657373000000000000000000000000000000000000000000000000000000006020830152604082019050919050565b60006129cd6019836136ea565b91507f4552433732313a20617070726f766520746f2063616c6c6572000000000000006000830152602082019050919050565b6000612a0d600b836136fb565b91507f5345434f4e445f574f52440000000000000000000000000000000000000000006000830152600b82019050919050565b6000612a4d602c836136ea565b91507f4552433732313a206f70657261746f7220717565727920666f72206e6f6e657860008301527f697374656e7420746f6b656e00000000000000000000000000000000000000006020830152604082019050919050565b6000612ab3600d836136fb565b91507f3c2f746578743e3c2f7376673e000000000000000000000000000000000000006000830152600d82019050919050565b6000612af36038836136ea565b91507f4552433732313a20617070726f76652063616c6c6572206973206e6f74206f7760008301527f6e6572206e6f7220617070726f76656420666f7220616c6c00000000000000006020830152604082019050919050565b6000612b59602a836136ea565b91507f4552433732313a2062616c616e636520717565727920666f7220746865207a6560008301527f726f2061646472657373000000000000000000000000000000000000000000006020830152604082019050919050565b6000612bbf6029836136ea565b91507f4552433732313a206f776e657220717565727920666f72206e6f6e657869737460008301527f656e7420746f6b656e00000000000000000000000000000000000000000000006020830152604082019050919050565b6000612c25602e836136ea565b91507f45524337323155524953746f726167653a2055524920736574206f66206e6f6e60008301527f6578697374656e7420746f6b656e0000000000000000000000000000000000006020830152604082019050919050565b6000612c8b6068836136fb565b91507f222c20226465736372697074696f6e223a20224120686967686c79206163636c60008301527f61696d656420636f6c6c656374696f6e206f662073696d706c6520776f72647360208301527f2e222c2022696d616765223a2022646174613a696d6167652f7376672b786d6c60408301527f3b6261736536342c0000000000000000000000000000000000000000000000006060830152606882019050919050565b6000612d3d6002836136fb565b91507f227d0000000000000000000000000000000000000000000000000000000000006000830152600282019050919050565b6000612d7d6020836136ea565b91507f4552433732313a206d696e7420746f20746865207a65726f20616464726573736000830152602082019050919050565b6000612dbd6031836136ea565b91507f45524337323155524953746f726167653a2055524920717565727920666f722060008301527f6e6f6e6578697374656e7420746f6b656e0000000000000000000000000000006020830152604082019050919050565b6000612e23602c836136ea565b91507f4552433732313a20617070726f76656420717565727920666f72206e6f6e657860008301527f697374656e7420746f6b656e00000000000000000000000000000000000000006020830152604082019050919050565b6000612e896029836136ea565b91507f4552433732313a207472616e73666572206f6620746f6b656e2074686174206960008301527f73206e6f74206f776e00000000000000000000000000000000000000000000006020830152604082019050919050565b6000612eef602f836136ea565b91507f4552433732314d657461646174613a2055524920717565727920666f72206e6f60008301527f6e6578697374656e7420746f6b656e00000000000000000000000000000000006020830152604082019050919050565b6000612f55600a836136fb565b91507f7b226e616d65223a2022000000000000000000000000000000000000000000006000830152600a82019050919050565b6000612f956017836136ea565b91507f536f7272792c2077652061726520736f6c64206f7574210000000000000000006000830152602082019050919050565b6000612fd56021836136ea565b91507f4552433732313a20617070726f76616c20746f2063757272656e74206f776e6560008301527f72000000000000000000000000000000000000000000000000000000000000006020830152604082019050919050565b600061303b600a836136fb565b91507f46495253545f574f5244000000000000000000000000000000000000000000006000830152600a82019050919050565b600061307b601d836136fb565b91507f646174613a6170706c69636174696f6e2f6a736f6e3b6261736536342c0000006000830152601d82019050919050565b60006130bb6031836136ea565b91507f4552433732313a207472616e736665722063616c6c6572206973206e6f74206f60008301527f776e6572206e6f7220617070726f7665640000000000000000000000000000006020830152604082019050919050565b60006131216005836136fb565b91507f434f4c4f520000000000000000000000000000000000000000000000000000006000830152600582019050919050565b61315d81613885565b82525050565b600061316f82846127c4565b915081905092915050565b600061318682856127c4565b915061319282846127c4565b91508190509392505050565b60006131aa82866127c4565b91506131b682856127c4565b91506131c282846127c4565b9150819050949350505050565b60006131db82876127f5565b91506131e782866127c4565b91506131f382856127f5565b91506131ff82846127c4565b915061320a82612aa6565b915081905095945050505050565b60006132238261291a565b915061322f82846127c4565b915081905092915050565b600061324582612a00565b915061325182846127c4565b915081905092915050565b600061326782612f48565b915061327382856127c4565b915061327e82612c7e565b915061328a82846127c4565b915061329582612d30565b91508190509392505050565b60006132ac8261302e565b91506132b882846127c4565b915081905092915050565b60006132ce8261306e565b91506132da82846127c4565b915081905092915050565b60006132f082613114565b91506132fc82846127c4565b915081905092915050565b600060208201905061331c6000830184612734565b92915050565b60006080820190506133376000830187612734565b6133446020830186612734565b6133516040830185613154565b81810360608301526133638184612752565b905095945050505050565b60006040820190506133836000830185612734565b6133906020830184613154565b9392505050565b60006020820190506133ac6000830184612743565b92915050565b600060208201905081810360008301526133cc818461278b565b905092915050565b600060608201905081810360008301526133ee818661278b565b90506133fd6020830185613154565b61340a6040830184612734565b949350505050565b6000602082019050818103600083015261342b81612874565b9050919050565b6000602082019050818103600083015261344b816128da565b9050919050565b6000602082019050818103600083015261346b8161295a565b9050919050565b6000602082019050818103600083015261348b816129c0565b9050919050565b600060208201905081810360008301526134ab81612a40565b9050919050565b600060208201905081810360008301526134cb81612ae6565b9050919050565b600060208201905081810360008301526134eb81612b4c565b9050919050565b6000602082019050818103600083015261350b81612bb2565b9050919050565b6000602082019050818103600083015261352b81612c18565b9050919050565b6000602082019050818103600083015261354b81612d70565b9050919050565b6000602082019050818103600083015261356b81612db0565b9050919050565b6000602082019050818103600083015261358b81612e16565b9050919050565b600060208201905081810360008301526135ab81612e7c565b9050919050565b600060208201905081810360008301526135cb81612ee2565b9050919050565b600060208201905081810360008301526135eb81612f88565b9050919050565b6000602082019050818103600083015261360b81612fc8565b9050919050565b6000602082019050818103600083015261362b816130ae565b9050919050565b60006020820190506136476000830184613154565b92915050565b6000604051905081810181811067ffffffffffffffff8211171561367457613673613a0a565b5b8060405250919050565b600067ffffffffffffffff82111561369957613698613a0a565b5b601f19601f8301169050602081019050919050565b60008190508160005260206000209050919050565b600081519050919050565b600081519050919050565b600082825260208201905092915050565b600082825260208201905092915050565b600081905092915050565b600061371182613885565b915061371c83613885565b9250827fffffffffffffffffffffffffffffffffffffffffffffffffffffffffffffffff038211156137515761375061397d565b5b828201905092915050565b600061376782613885565b915061377283613885565b925082613782576137816139ac565b5b828204905092915050565b600061379882613885565b91506137a383613885565b9250817fffffffffffffffffffffffffffffffffffffffffffffffffffffffffffffffff04831182151516156137dc576137db61397d565b5b828202905092915050565b60006137f282613885565b91506137fd83613885565b9250828210156138105761380f61397d565b5b828203905092915050565b600061382682613865565b9050919050565b60008115159050919050565b60007fffffffff0000000000000000000000000000000000000000000000000000000082169050919050565b600073ffffffffffffffffffffffffffffffffffffffff82169050919050565b6000819050919050565b82818337600083830152505050565b60005b838110156138bc5780820151818401526020810190506138a1565b838111156138cb576000848401525b50505050565b600060028204905060018216806138e957607f821691505b602082108114156138fd576138fc6139db565b5b50919050565b600061390e82613885565b91507fffffffffffffffffffffffffffffffffffffffffffffffffffffffffffffffff8214156139415761394061397d565b5b600182019050919050565b600061395782613885565b915061396283613885565b925082613972576139716139ac565b5b828206905092915050565b7f4e487b7100000000000000000000000000000000000000000000000000000000600052601160045260246000fd5b7f4e487b7100000000000000000000000000000000000000000000000000000000600052601260045260246000fd5b7f4e487b7100000000000000000000000000000000000000000000000000000000600052602260045260246000fd5b7f4e487b7100000000000000000000000000000000000000000000000000000000600052604160045260246000fd5b6000601f19601f8301169050919050565b613a538161381b565b8114613a5e57600080fd5b50565b613a6a8161382d565b8114613a7557600080fd5b50565b613a8181613839565b8114613a8c57600080fd5b50565b613a9881613885565b8114613aa357600080fd5b5056fe4142434445464748494a4b4c4d4e4f505152535455565758595a6162636465666768696a6b6c6d6e6f707172737475767778797a303132333435363738392b2f416e204e4654207769746820494420257320686173206265656e206d696e74656420746f202573a2646970667358221220017be3ebfe0ee911e2fd7d3b9b6e6e5811ba7b87cee4a8be3cd2f76b75d5bfc864736f6c634300080000333c73766720786d6c6e733d27687474703a2f2f7777772e77332e6f72672f323030302f73766727207072657365727665417370656374526174696f3d27784d696e594d696e206d656574272076696577426f783d273020302033353020333530273e3c7374796c653e2e62617365207b2066696c6c3a2077686974653b20666f6e742d66616d696c793a2073657269663b20666f6e742d73697a653a20323470783b207d3c2f7374796c653e3c726563742077696474683d273130302527206865696768743d2731303025272066696c6c3d274669727374206d696e742023207375636365737366756c6c792073657420746f203154686973206973206d79204e465420436f6e74726163742e2050726574747920636f6f6c21272f3e3c7465787420783d273530252720793d273530252720636c6173733d27626173652720646f6d696e616e742d626173656c696e653d276d6964646c652720746578742d616e63686f723d276d6964646c65273e",
  "linkReferences": {},
  "deployedLinkReferences": {}
}